{
	"data": {
		"bytecode": {
			"linkReferences": {},
			"object": "6080604052605060005560646061600054028161001857fe5b0460015560648061012c600054028161002d57fe5b048161003557fe5b0460025534801561004557600080fd5b5060dd806100546000396000f3fe6080604052348015600f57600080fd5b5060043610603c5760003560e01c80630dbe671f1460415780634df7e3d014605d578063c3da42b8146079575b600080fd5b60476095565b6040518082815260200191505060405180910390f35b6063609b565b6040518082815260200191505060405180910390f35b607f60a1565b6040518082815260200191505060405180910390f35b60005481565b60015481565b6002548156fea264697066735822122076cf43fae53d0c7b85ba24b42fd2b87de8e7ad730cfa2dffc4bdc0dc25119a3d64736f6c634300060a0033",
			"opcodes": "PUSH1 0x80 PUSH1 0x40 MSTORE PUSH1 0x50 PUSH1 0x0 SSTORE PUSH1 0x64 PUSH1 0x61 PUSH1 0x0 SLOAD MUL DUP2 PUSH2 0x18 JUMPI INVALID JUMPDEST DIV PUSH1 0x1 SSTORE PUSH1 0x64 DUP1 PUSH2 0x12C PUSH1 0x0 SLOAD MUL DUP2 PUSH2 0x2D JUMPI INVALID JUMPDEST DIV DUP2 PUSH2 0x35 JUMPI INVALID JUMPDEST DIV PUSH1 0x2 SSTORE CALLVALUE DUP1 ISZERO PUSH2 0x45 JUMPI PUSH1 0x0 DUP1 REVERT JUMPDEST POP PUSH1 0xDD DUP1 PUSH2 0x54 PUSH1 0x0 CODECOPY PUSH1 0x0 RETURN INVALID PUSH1 0x80 PUSH1 0x40 MSTORE CALLVALUE DUP1 ISZERO PUSH1 0xF JUMPI PUSH1 0x0 DUP1 REVERT JUMPDEST POP PUSH1 0x4 CALLDATASIZE LT PUSH1 0x3C JUMPI PUSH1 0x0 CALLDATALOAD PUSH1 0xE0 SHR DUP1 PUSH4 0xDBE671F EQ PUSH1 0x41 JUMPI DUP1 PUSH4 0x4DF7E3D0 EQ PUSH1 0x5D JUMPI DUP1 PUSH4 0xC3DA42B8 EQ PUSH1 0x79 JUMPI JUMPDEST PUSH1 0x0 DUP1 REVERT JUMPDEST PUSH1 0x47 PUSH1 0x95 JUMP JUMPDEST PUSH1 0x40 MLOAD DUP1 DUP3 DUP2 MSTORE PUSH1 0x20 ADD SWAP2 POP POP PUSH1 0x40 MLOAD DUP1 SWAP2 SUB SWAP1 RETURN JUMPDEST PUSH1 0x63 PUSH1 0x9B JUMP JUMPDEST PUSH1 0x40 MLOAD DUP1 DUP3 DUP2 MSTORE PUSH1 0x20 ADD SWAP2 POP POP PUSH1 0x40 MLOAD DUP1 SWAP2 SUB SWAP1 RETURN JUMPDEST PUSH1 0x7F PUSH1 0xA1 JUMP JUMPDEST PUSH1 0x40 MLOAD DUP1 DUP3 DUP2 MSTORE PUSH1 0x20 ADD SWAP2 POP POP PUSH1 0x40 MLOAD DUP1 SWAP2 SUB SWAP1 RETURN JUMPDEST PUSH1 0x0 SLOAD DUP2 JUMP JUMPDEST PUSH1 0x1 SLOAD DUP2 JUMP JUMPDEST PUSH1 0x2 SLOAD DUP2 JUMP INVALID LOG2 PUSH5 0x6970667358 0x22 SLT KECCAK256 PUSH23 0xCF43FAE53D0C7B85BA24B42FD2B87DE8E7AD730CFA2DFF 0xC4 0xBD 0xC0 0xDC 0x25 GT SWAP11 RETURNDATASIZE PUSH5 0x736F6C6343 STOP MOD EXP STOP CALLER "
		},
		"gasEstimates": {
			"creation": {
				"codeDepositCost": "44200",
				"executionCost": "61802",
				"totalCost": "106002"
			},
			"external": {
				"a()": "983",
				"b()": "1005",
				"c()": "1027"
			}
		},
		"methodIdentifiers": {
			"a()": "0dbe671f",
			"b()": "4df7e3d0",
			"c()": "c3da42b8"
		}
	},
	"abi": [
		{
			"inputs": [],
			"name": "a",
			"outputs": [
				{
					"internalType": "uint256",
					"name": "",
					"type": "uint256"
				}
			],
			"stateMutability": "view",
			"type": "function"
		},
		{
			"inputs": [],
			"name": "b",
			"outputs": [
				{
					"internalType": "uint256",
					"name": "",
					"type": "uint256"
				}
			],
			"stateMutability": "view",
			"type": "function"
		},
		{
			"inputs": [],
			"name": "c",
			"outputs": [
				{
					"internalType": "uint256",
					"name": "",
					"type": "uint256"
				}
			],
			"stateMutability": "view",
			"type": "function"
		}
	]
}